{
    "_format": "hh-sol-artifact-1",
    "contractName": "DonateCrypto",
    "sourceName": "contracts/DonateCrypto.sol",
    "abi": [
        {
            "inputs": [],
            "stateMutability": "nonpayable",
            "type": "constructor"
        },
        {
            "inputs": [],
            "name": "DonateCrypto__NotOwner",
            "type": "error"
        },
        {
            "stateMutability": "payable",
            "type": "fallback"
        },
        {
            "inputs": [],
            "name": "donate",
            "outputs": [],
            "stateMutability": "payable",
            "type": "function"
        },
        {
            "inputs": [],
            "name": "getContractOwner",
            "outputs": [
                {
                    "internalType": "address",
                    "name": "",
                    "type": "address"
                }
            ],
            "stateMutability": "view",
            "type": "function"
        },
        {
            "inputs": [
                {
                    "internalType": "address",
                    "name": "donor",
                    "type": "address"
                }
            ],
            "name": "getDonatedAmount",
            "outputs": [
                {
                    "internalType": "uint256",
                    "name": "",
                    "type": "uint256"
                }
            ],
            "stateMutability": "view",
            "type": "function"
        },
        {
            "inputs": [],
            "name": "getDonors",
            "outputs": [
                {
                    "internalType": "address[]",
                    "name": "",
                    "type": "address[]"
                }
            ],
            "stateMutability": "view",
            "type": "function"
        },
        {
            "inputs": [],
            "name": "getNumberOfDonors",
            "outputs": [
                {
                    "internalType": "uint256",
                    "name": "",
                    "type": "uint256"
                }
            ],
            "stateMutability": "view",
            "type": "function"
        },
        {
            "inputs": [],
            "name": "withdraw",
            "outputs": [],
            "stateMutability": "nonpayable",
            "type": "function"
        },
        {
            "stateMutability": "payable",
            "type": "receive"
        }
    ],
    "bytecode": "0x60a060405234801561001057600080fd5b503373ffffffffffffffffffffffffffffffffffffffff1660808173ffffffffffffffffffffffffffffffffffffffff1681525050608051610ac5610067600039600081816102a501526104e70152610ac56000f3fe6080604052600436106100595760003560e01c80631da32711146100725780633ccfd60b1461009d578063442890d5146100b457806396f300d4146100df578063b03b57191461010a578063ed88c68e1461014757610068565b3661006857610066610151565b005b610070610151565b005b34801561007e57600080fd5b50610087610297565b60405161009491906106a2565b60405180910390f35b3480156100a957600080fd5b506100b26102a3565b005b3480156100c057600080fd5b506100c96104e3565b6040516100d691906106fe565b60405180910390f35b3480156100eb57600080fd5b506100f461050b565b60405161010191906107d7565b60405180910390f35b34801561011657600080fd5b50610131600480360381019061012c919061082a565b610599565b60405161013e91906106a2565b60405180910390f35b61014f610151565b005b60003411610194576040517f08c379a000000000000000000000000000000000000000000000000000000000815260040161018b906108b4565b60405180910390fd5b6000600160003373ffffffffffffffffffffffffffffffffffffffff1673ffffffffffffffffffffffffffffffffffffffff168152602001908152602001600020540361023f576000339080600181540180825580915050600190039060005260206000200160009091909190916101000a81548173ffffffffffffffffffffffffffffffffffffffff021916908373ffffffffffffffffffffffffffffffffffffffff1602179055505b34600160003373ffffffffffffffffffffffffffffffffffffffff1673ffffffffffffffffffffffffffffffffffffffff168152602001908152602001600020600082825461028e9190610903565b92505081905550565b60008080549050905090565b7f000000000000000000000000000000000000000000000000000000000000000073ffffffffffffffffffffffffffffffffffffffff163373ffffffffffffffffffffffffffffffffffffffff1614610328576040517ff523060800000000000000000000000000000000000000000000000000000000815260040160405180910390fd5b60005b6000805490508110156103d357600080828154811061034d5761034c610937565b5b9060005260206000200160009054906101000a900473ffffffffffffffffffffffffffffffffffffffff1690506000600160008373ffffffffffffffffffffffffffffffffffffffff1673ffffffffffffffffffffffffffffffffffffffff168152602001908152602001600020819055505080806103cb90610966565b91505061032b565b50600067ffffffffffffffff8111156103ef576103ee6109ae565b5b60405190808252806020026020018201604052801561041d5781602001602082028036833780820191505090505b50600090805190602001906104339291906105e2565b5060003373ffffffffffffffffffffffffffffffffffffffff164760405161045a90610a0e565b60006040518083038185875af1925050503d8060008114610497576040519150601f19603f3d011682016040523d82523d6000602084013e61049c565b606091505b50509050806104e0576040517f08c379a00000000000000000000000000000000000000000000000000000000081526004016104d790610a6f565b60405180910390fd5b50565b60007f0000000000000000000000000000000000000000000000000000000000000000905090565b6060600080548060200260200160405190810160405280929190818152602001828054801561058f57602002820191906000526020600020905b8160009054906101000a900473ffffffffffffffffffffffffffffffffffffffff1673ffffffffffffffffffffffffffffffffffffffff1681526020019060010190808311610545575b5050505050905090565b6000600160008373ffffffffffffffffffffffffffffffffffffffff1673ffffffffffffffffffffffffffffffffffffffff168152602001908152602001600020549050919050565b82805482825590600052602060002090810192821561065b579160200282015b8281111561065a5782518260006101000a81548173ffffffffffffffffffffffffffffffffffffffff021916908373ffffffffffffffffffffffffffffffffffffffff16021790555091602001919060010190610602565b5b509050610668919061066c565b5090565b5b8082111561068557600081600090555060010161066d565b5090565b6000819050919050565b61069c81610689565b82525050565b60006020820190506106b76000830184610693565b92915050565b600073ffffffffffffffffffffffffffffffffffffffff82169050919050565b60006106e8826106bd565b9050919050565b6106f8816106dd565b82525050565b600060208201905061071360008301846106ef565b92915050565b600081519050919050565b600082825260208201905092915050565b6000819050602082019050919050565b61074e816106dd565b82525050565b60006107608383610745565b60208301905092915050565b6000602082019050919050565b600061078482610719565b61078e8185610724565b935061079983610735565b8060005b838110156107ca5781516107b18882610754565b97506107bc8361076c565b92505060018101905061079d565b5085935050505092915050565b600060208201905081810360008301526107f18184610779565b905092915050565b600080fd5b610807816106dd565b811461081257600080fd5b50565b600081359050610824816107fe565b92915050565b6000602082840312156108405761083f6107f9565b5b600061084e84828501610815565b91505092915050565b600082825260208201905092915050565b7f496e76616c696420616d6f756e74000000000000000000000000000000000000600082015250565b600061089e600e83610857565b91506108a982610868565b602082019050919050565b600060208201905081810360008301526108cd81610891565b9050919050565b7f4e487b7100000000000000000000000000000000000000000000000000000000600052601160045260246000fd5b600061090e82610689565b915061091983610689565b9250828201905080821115610931576109306108d4565b5b92915050565b7f4e487b7100000000000000000000000000000000000000000000000000000000600052603260045260246000fd5b600061097182610689565b91507fffffffffffffffffffffffffffffffffffffffffffffffffffffffffffffffff82036109a3576109a26108d4565b5b600182019050919050565b7f4e487b7100000000000000000000000000000000000000000000000000000000600052604160045260246000fd5b600081905092915050565b50565b60006109f86000836109dd565b9150610a03826109e8565b600082019050919050565b6000610a19826109eb565b9150819050919050565b7f43616c6c206661696c6564000000000000000000000000000000000000000000600082015250565b6000610a59600b83610857565b9150610a6482610a23565b602082019050919050565b60006020820190508181036000830152610a8881610a4c565b905091905056fea26469706673582212208f2951a9bf4249da6483810d473827edb9619f3d1b76df8ef3401bff5a409ed564736f6c63430008110033",
    "linkReferences": {},
    "deployedLinkReferences": {}
}